:100000000C9463000C948B000C948B000C948B006C
:100010000C948B000C948B000C948B000C94250298
:100020000C948B000C948B000C948B000C948B0024
:100030000C948B000C948B000C948B000C948B0014
:100040000C941C040C948B000C9488060C94CB0626
:100050000C948B000C948B000C948B000C948B00F4
:100060000C948B000C948B00000000070002010030
:100070000003040600000000000000000102040864
:100080001020408001020408102001020408102002
:10009000040404040404040402020202020203032E
:1000A00003030303000000002300260029000000D2
:1000B0000000250028002B0000000000240027007D
:1000C0002A000404900711241FBECFEFD8E0DEBF42
:1000D000CDBF11E0A0E0B1E0E2E8F2E102C005909E
:1000E0000D92AA3CB107D9F712E0AAECB1E001C029
:1000F0001D92A13CB107E1F710E0C3E6D0E004C0D7
:100100002197FE010E943909C136D107C9F70E9423
:10011000CC070C943F090C940000DC0170E0FB015B
:10012000E458FF4FE4911496EC93149750E0FA01D1
:10013000E458FF4FE4911596EC931597FB01E057B7
:10014000FF4F6491E62FF0E0BF01660F771FFB01C0
:10015000E255FF4F8591949117969C938E93169735
:10016000FA01E057FF4F4491E42FF0E0EE0FFF1F3C
:10017000EC55FF4F8591949119969C938E93189707
:10018000FB01E854FF4F859194911B969C938E93AD
:100190001A972F5F3F4F49E3429FC001439F900D45
:1001A00011248E382FE6920710F08DE89FE61D96F9
:1001B0009C938E931C9708950F931F93CF93DF9377
:1001C000EC01EA85FB8590818C81892B8083EE810F
:1001D000FF8190818C8180958923808384E090E0E9
:1001E0000E94B104EE81FF8190818C81892B8083F4
:1001F0008AE090E00E94B104EE81FF8190818C81C1
:10020000809589238083EA85FB8590818C81809508
:1002100089238083E885F98590818D81892311F078
:1002200080E036C00E9466042C853D85890120E06F
:1002300030E00855194E2F4F3F4FDC01CB01800FA6
:10024000911FA21FB31F8E879F87A88BB98BE8854C
:10025000F98590818D81892361F40E9466040E8561
:100260001F8528893989061717072807390778F75E
:10027000D7CF0E9466042C853D85DC01CB01820F1F
:10028000931FA11DB11D8E879F87A88BB98B81E01D
:10029000DF91CF911F910F9108950F931F93CF93EB
:1002A000DF93EC010E94DC0081110EC080E090E041
:1002B00020C00E9466040E851F852889398906178B
:1002C00017072807390790F3E885F98590818D8114
:1002D000892379F70E9466042C853D85A901455044
:1002E00051092E853F85FA01E21BF30BCF01860FE2
:1002F000971FDF91CF911F910F9108952F923F92F9
:100300004F925F926F927F928F929F92AF92BF9225
:10031000CF92DF92EF92FF920F931F93CF93DF93D1
:10032000CDB7DEB73C01162F2DB63EB62DB73EB782
:1003300042E0649F2019310911240FB6F8943EBFA2
:100340000FBE2DBF8DB79EB701962C01EDB7FEB73E
:100350001282118200E088EE882E83E0982EA12C74
:10036000B12C011708F051C00E9466046B017C019A
:10037000C3010E944D010097F9F0011102C020E075
:1003800012C0202FF201E20FF11DE20FF11DDF017B
:1003900012974D915C914817590728F45183408377
:1003A000215081F7ECCFF201E20FF11DE20FF11DB8
:1003B000918380830F5F01C01150011790F60E9456
:1003C0006604DC01CB018C199D09AE09BF09883494
:1003D0009147A105B10528F60E94660428E4C20EE3
:1003E00021E7D21EE11CF11CA7019601261B370B49
:1003F000480B590BCA01B901A50194010E941709C4
:10040000CA01B9010E948B04ACCF1E7FF201E10F3B
:10041000F11D6081718180E090E00FB6F8943EBEDE
:100420000FBE2DBEDF91CF911F910F91FF90EF90E6
:10043000DF90CF90BF90AF909F908F907F906F9004
:100440005F904F903F902F9008951F920F920FB69C
:100450000F9211242F933F934F935F936F937F934A
:100460008F939F93AF93BF93EF93FF93E091CA0154
:10047000F091CB010995FF91EF91BF91AF919F91C1
:100480008F917F916F915F914F913F912F910F903D
:100490000FBE0F901F901895CB0169E370E00E948A
:1004A000EF08CB01089540E052EC61E070E087E195
:1004B00092E00E94060761E083E00E941F0561E070
:1004C00085E00E941F0561E086E00E941F0561E053
:1004D0008AE00C941F058091D6019091D701892B59
:1004E00009F05BC060E071E087E192E00E941808CB
:1004F00065E08AEE91E00E947E018AEE91E00E9422
:100500004C029093D5018093D4014AE050E0BC01A5
:1005100087E192E00E94E70860E171E087E192E004
:100520000E9435088091D4019091D50186309105C3
:10053000A4F5892B91F181E090E09093D70180930D
:10054000D60163E171E087E192E00E9435086EEF29
:1005500070E083E00E948B0564E670E080E090E04C
:100560000E948B0460E070E083E00E948B0564E6EB
:1005700070E080E090E00E948B046EEF70E083E01A
:100580000E948B0564E670E080E090E00E948B049E
:1005900060E070E083E00E948B058091D201909131
:1005A000D301892B09F05BC06BE271E087E192E037
:1005B0000E94180865E088ED91E00E947E0188EDB8
:1005C00091E00E944C029093D1018093D0014AE0C7
:1005D00050E0BC0187E192E00E94E70860E171E031
:1005E00087E192E00E9435088091D0019091D1017D
:1005F00086309105A4F5892B91F181E090E09093EC
:10060000D3018093D2016AE371E087E192E00E9416
:1006100035086EEF70E086E00E948B0564E670E0BE
:1006200080E090E00E948B0460E070E086E00E9431
:100630008B0564E670E080E090E00E948B046EEF32
:1006400070E086E00E948B0564E670E080E090E058
:100650000E948B0460E070E086E00E948B05809130
:10066000CE019091CF01892B09F05BC061E571E06B
:1006700087E192E00E94180865E08CEF91E00E940B
:100680007E018CEF91E00E944C029093CD0180930B
:10069000CC014AE050E0BC0187E192E00E94E7080B
:1006A00060E171E087E192E00E9435088091CC0121
:1006B0009091CD0186309105A4F5892B91F181E0CF
:1006C00090E09093CF018093CE0160E671E087E1E6
:1006D00092E00E9435086EEF70E08AE00E948B0580
:1006E00064E670E080E090E00E948B0460E070E0DF
:1006F0008AE00E948B0564E670E080E090E00E9452
:100700008B046EEF70E08AE00E948B0564E670E077
:1007100080E090E00E948B0460E070E08AE00E943C
:100720008B058091D6019091D701019701F567E77C
:1007300071E087E192E00E94350865E08AEE91E081
:100740000E947E018AEE91E00E944C029093D501B6
:100750008093D4014AE050E0BC0187E192E00E941E
:10076000E70860E171E087E192E00E94350880913E
:10077000D2019091D301019701F56EE871E087E114
:1007800092E00E94350865E088ED91E00E947E01CC
:1007900088ED91E00E944C029093D1018093D001AA
:1007A0004AE050E0BC0187E192E00E94E70860E186
:1007B00071E087E192E00E9435088091CE0190912E
:1007C000CF01019701F564EA71E087E192E00E94B0
:1007D000350865E08CEF91E00E947E018CEF91E09E
:1007E0000E944C029093CD018093CC014AE050E0EE
:1007F000BC0187E192E00E94E70860E171E087E1D7
:1008000092E00C943508089528EC30E049E068E067
:100810008CEF91E00E948D0028EC30E04BE06CE022
:100820008AEE91E00E948D0028EC30E042E064E026
:1008300088ED91E00C948D001F920F920FB60F92ED
:1008400011242F933F938F939F93AF93BF938091E6
:100850000F0290911002A0911102B09112023091FA
:100860000E0223E0230F2D3720F40196A11DB11DA8
:1008700005C026E8230F0296A11DB11D20930E028C
:1008800080930F0290931002A0931102B093120272
:100890008091130290911402A0911502B09116025A
:1008A0000196A11DB11D8093130290931402A09391
:1008B0001502B0931602BF91AF919F918F913F9116
:1008C0002F910F900FBE0F901F9018953FB7F8947F
:1008D0008091130290911402A0911502B09116021A
:1008E00026B5A89B05C02F3F19F00196A11DB11D8B
:1008F0003FBFBA2FA92F982F8827820F911DA11DC6
:10090000B11DBC01CD0142E0660F771F881F991F02
:100910004A95D1F70895CF92DF92EF92FF92CF934D
:10092000DF936B017C010E946604EB01C114D104CA
:10093000E104F10479F00E9466046C1B7D0B683EB3
:100940007340A0F381E0C81AD108E108F108C8514A
:10095000DC4FECCFDF91CF91FF90EF90DF90CF9005
:100960000895019739F0880F991F880F991F0297F2
:100970000197F1F70895789484B5826084BD84B5B9
:10098000816084BD85B5826085BD85B5816085BD8A
:10099000EEE6F0E0808181608083E1E8F0E01082A3
:1009A000808182608083808181608083E0E8F0E0E4
:1009B000808181608083E1EBF0E0808184608083CE
:1009C000E0EBF0E0808181608083EAE7F0E0808105
:1009D0008460808380818260808380818160808365
:1009E0008081806880831092C1000895833081F0F7
:1009F00028F4813099F08230A1F008958630A9F072
:100A00008730B9F08430D1F4809180008F7D03C0AD
:100A1000809180008F7780938000089584B58F77D0
:100A200002C084B58F7D84BD08958091B0008F771A
:100A300003C08091B0008F7D8093B0000895CF9364
:100A4000DF9390E0FC01E458FF4F2491FC01E05754
:100A5000FF4F8491882361F190E0880F991FFC017A
:100A6000E854FF4FC591D491FC01E255FF4FA59189
:100A7000B491611109C09FB7F894888120958223B1
:100A80008883EC912E230BC0623061F49FB7F894F9
:100A90003881822F809583238883EC912E2B2C9391
:100AA0009FBF06C08FB7F894E8812E2B28838FBF95
:100AB000DF91CF9108951F93CF93DF93282F30E0DC
:100AC000F901E859FF4F8491F901E458FF4FD4919F
:100AD000F901E057FF4FC491CC23C9F0162F8111C3
:100AE0000E94F604EC2FF0E0EE0FFF1FE255FF4FDF
:100AF000A591B4918FB7F894111105C09C91ED2F79
:100B0000E095E92302C0EC91ED2BEC938FBFDF91D0
:100B1000CF911F9108951F93CF93DF93182FEB016F
:100B200061E00E941F05209711F460E004C0CF3FF0
:100B3000D10539F461E0812FDF91CF911F910C94A1
:100B40005B05E12FF0E0E859FF4FE491E330F9F065
:100B500048F4E130B9F0E230A1F584B5806284BD9B
:100B6000C8BD34C0E630E9F0E73019F1E43049F5AA
:100B700080918000806280938000D0938B00C0932E
:100B80008A0024C084B5806884BDC7BD1FC0809121
:100B90008000806880938000D0938900C093880093
:100BA00015C08091B00080688093B000C093B300FE
:100BB0000DC08091B00080628093B000C093B400FB
:100BC00005C0C038D1050CF0B5CFAFCFDF91CF91C4
:100BD0001F910895FC0124853585F901E05CFF4FE4
:100BE00080819181329620813181805C9F4F821B70
:100BF000930B60E470E00E9403090895DC011C96E9
:100C0000ED91FC911D97DF01A05CBF4F2D913C91B0
:100C1000119712968D919C9111972817390739F0E9
:100C20008D919C91E80FF91F808190E008958FEFDE
:100C30009FEF0895FC01A485B585FD01E05CFF4FA1
:100C4000208131813296808191812817390779F08E
:100C500080819181A80FB91F8C91208131812F5FF4
:100C60003F4F2F7333273183208390E008958FEF18
:100C70009FEF0895FC0181A1882329F0A489B589FB
:100C80008C9186FFFBCF11A208950F931F93CF93F2
:100C9000DF93FC01A685B7858D01005C1F4FE8013D
:100CA0008881998101968F739927AD014E5B5F4FC3
:100CB000EA012881398182179307D1F3E80128815D
:100CC0003981A20FB31F6C93A685B785A05CBF4F77
:100CD00011969C938E93A689B7892C9181E090E020
:100CE000078C02C0880F991F0A94E2F7822B8C931D
:100CF00081E081A30488F589E02D80818064808370
:100D000081E090E0DF91CF911F910F9108950895B8
:100D10001F920F920FB60F9211242F934F935F9350
:100D20008F939F93EF93FF938091C00082FD1CC02F
:100D30002091C6008091BD029091BE0201968F73F2
:100D400099274091BF025091C0028417950771F016
:100D5000E091BD02F091BE02E358FD4F20839093D5
:100D6000BE028093BD0202C08091C600FF91EF9148
:100D70009F918F915F914F912F910F900FBE0F9088
:100D80001F90189587E192E00E94EA05892B11F0E7
:100D90000C94870608951F920F920FB60F9211249C
:100DA0002F933F938F939F93EF93FF93209179021B
:100DB00030917A0280917B0290917C02281739074A
:100DC00031F48091C1008F7D8093C10014C0E09107
:100DD0007B02F0917C02E75CFD4F208180917B02D9
:100DE00090917C0201968F73992790937C02809357
:100DF0007B022093C600FF91EF919F918F913F91CD
:100E00002F910F900FBE0F901F901895CF92DF92E9
:100E1000EF92FF920F931F93CF93DF93EC016A0140
:100E20007B01411581EE58076105710511F1EC89CF
:100E3000FD8981E090E008A002C0880F991F0A9404
:100E4000E2F7808360E079E08DE390E0A70196010E
:100E50000E94170989019A010150110921093109DC
:100E600036952795179507959801011580E1180784
:100E7000A8F0EC89FD89108260E874E88EE190E0CA
:100E8000A70196010E941709DA01C9010197A1097A
:100E9000B109B695A795979587959C01E889F98939
:100EA0003083EA89FB89208319A2EE89FF8940817A
:100EB00081E090E09C010C8C02C0220F331F0A9449
:100EC000E2F7242B2083EE89FF8940819C010D8C61
:100ED00002C0220F331F0A94E2F7242B2083EE89ED
:100EE000FF8940819C010E8C02C0220F331F0A949F
:100EF000E2F7242B2083EE89FF8920810F8C02C02A
:100F0000880F991F0A94E2F7809582238083DF91EE
:100F1000CF911F910F91FF90EF90DF90CF900895A8
:100F2000E7E1F2E01382128288EE93E0A0E0B0E005
:100F300084839583A683B7838EEB91E0918380832E
:100F40008DE792E09587848789E392E0978786878B
:100F500085EC90E0918B808B84EC90E0938B828B7E
:100F600080EC90E0958B848B81EC90E0978B868B66
:100F700082EC90E0918F808F86EC90E0938F828F4F
:100F800084E0848F83E0858F87E0868F85E0878F7C
:100F900081E080A3089508950E94BB040E94CB07BE
:100FA0000E945302C2ECD6E00E946B022097E1F34C
:100FB0000E94C206F9CFCF92DF92EF92FF920F9379
:100FC0001F93CF93DF936C01EB017B01E40EF51EC1
:100FD00000E010E0CE15DF0561F06991D601ED91DA
:100FE000FC910190F081E02DC6010995080F191FB1
:100FF000F1CFC801DF91CF911F910F91FF90EF903A
:10100000DF90CF9008956115710579F0FB01019093
:101010000020E9F73197AF01461B570BDC01ED913A
:10102000FC910280F381E02D099480E090E0089526
:101030000C940308DC01ED91FC910190F081E02D0E
:1010400009940F931F93CF93DF93EC016DE00E94FF
:101050001A088C016AE0CE010E941A08800F911FC5
:10106000DF91CF911F910F9108950F931F93CF930D
:10107000DF93EC010E9403088C01CE010E9421083D
:10108000800F911FDF91CF911F910F9108958F9243
:101090009F92AF92BF92CF92DF92EF92FF920F9307
:1010A0001F93CF93DF93CDB7DEB7A1970FB6F89418
:1010B000DEBF0FBECDBF6C01142FE52FCB01022F79
:1010C00019A2223008F40AE07E0121E2E20EF11CAE
:1010D000802E912CA12CB12C612F7E2FA501940183
:1010E0000E941709029F1019112481E0E81AF108E3
:1010F0001A3014F4105D01C0195CF7011083122F2F
:10110000E32FCA01232B242B252B31F7B701C6016E
:101110000E940308A1960FB6F894DEBF0FBECDBFA4
:10112000DF91CF911F910F91FF90EF90DF90CF90C3
:10113000BF90AF909F908F900895CF92DF92EF92E3
:10114000FF920F931F93CF93DF93EC016A017B0112
:101150002115310579F4E881F9810190F081E02DC4
:10116000642FDF91CF911F910F91FF90EF90DF904F
:10117000CF9009942A303105E9F477FF1AC06DE267
:101180000E941A088C0144275527BA014C195D09A1
:101190006E097F092AE0CE010E944708800F911F47
:1011A000DF91CF911F910F91FF90EF90DF90CF9043
:1011B00008952AE0B701A601CE01DF91CF911F91DA
:1011C0000F91FF90EF90DF90CF900C9447089A0119
:1011D000AB01662757FD6095762F0C949D08AA1BDE
:1011E000BB1B51E107C0AA1FBB1FA617B70710F012
:1011F000A61BB70B881F991F5A95A9F78095909544
:10120000BC01CD01089597FB072E16F4009407D07A
:1012100077FD09D00E94EF0807FC05D03EF49095B9
:1012200081959F4F0895709561957F4F0895A1E234
:101230001A2EAA1BBB1BFD010DC0AA1FBB1FEE1F50
:10124000FF1FA217B307E407F50720F0A21BB30B9B
:10125000E40BF50B661F771F881F991F1A9469F717
:1012600060957095809590959B01AC01BD01CF0173
:101270000895EE0FFF1F0590F491E02D0994F89466
:02128000FFCF9E
:1012820050696E6720657371756572646F3A2000EC
:10129200636D0056696272616E646F206D6F746F68
:1012A2007220657371756572646F0050696E672094
:1012B2006469726569746F3A200056696272616E80
:1012C200646F206D6F746F72206469726569746FE8
:1012D2000050696E672066726F6E74616C3A20000E
:1012E20056696272616E646F206D6F746F722066F0
:1012F200726F6E74616C004D6F746F7220657371E2
:10130200756572646F207465737461646F004D6FEC
:10131200746F72206469726569746F207465737486
:1013220061646F004D6F746F722066726F6E7461CC
:101332006C207465737461646F00000000004506E0
:0A134200DB07EA051A06FE053A066D
:00000001FF
