:100000000C9463000C948B000C948B000C948B006C
:100010000C948B000C948B000C948B000C94250298
:100020000C948B000C948B000C948B000C948B0024
:100030000C948B000C948B000C948B000C948B0014
:100040000C9451040C948B000C94BD060C94000786
:100050000C948B000C948B000C948B000C948B00F4
:100060000C948B000C948B00000000070002010030
:100070000003040600000000000000000102040864
:100080001020408001020408102001020408102002
:10009000040404040404040402020202020203032E
:1000A00003030303000000002300260029000000D2
:1000B0000000250028002B0000000000240027007D
:1000C0002A003904C50711241FBECFEFD8E0DEBFD8
:1000D000CDBF11E0A0E0B1E0ECEEF2E102C005908E
:1000E0000D92A43EB107D9F712E0A4EEB1E001C031
:1000F0001D92AD3DB107E1F710E0C3E6D0E004C0CA
:100100002197FE010E946E09C136D107C9F70E94EE
:1001100001080C9474090C940000DC0170E0FB01F0
:10012000E458FF4FE4911496EC93149750E0FA01D1
:10013000E458FF4FE4911596EC931597FB01E057B7
:10014000FF4F6491E62FF0E0BF01660F771FFB01C0
:10015000E255FF4F8591949117969C938E93169735
:10016000FA01E057FF4F4491E42FF0E0EE0FFF1F3C
:10017000EC55FF4F8591949119969C938E93189707
:10018000FB01E854FF4F859194911B969C938E93AD
:100190001A972F5F3F4F49E3429FC001439F900D45
:1001A00011248E382FE6920710F08DE89FE61D96F9
:1001B0009C938E931C9708950F931F93CF93DF9377
:1001C000EC01EA85FB8590818C81892B8083EE810F
:1001D000FF8190818C8180958923808384E090E0E9
:1001E0000E94E604EE81FF8190818C81892B8083BF
:1001F0008AE090E00E94E604EE81FF8190818C818C
:10020000809589238083EA85FB8590818C81809508
:1002100089238083E885F98590818D81892311F078
:1002200080E036C00E949B042C853D85890120E03A
:1002300030E00855194E2F4F3F4FDC01CB01800FA6
:10024000911FA21FB31F8E879F87A88BB98BE8854C
:10025000F98590818D81892361F40E949B040E852C
:100260001F8528893989061717072807390778F75E
:10027000D7CF0E949B042C853D85DC01CB01820FEA
:10028000931FA11DB11D8E879F87A88BB98B81E01D
:10029000DF91CF911F910F9108950F931F93CF93EB
:1002A000DF93EC010E94DC0081110EC080E090E041
:1002B00020C00E949B040E851F8528893989061756
:1002C00017072807390790F3E885F98590818D8114
:1002D000892379F70E949B042C853D85A90145500F
:1002E00051092E853F85FA01E21BF30BCF01860FE2
:1002F000971FDF91CF911F910F9108952F923F92F9
:100300004F925F926F927F928F929F92AF92BF9225
:10031000CF92DF92EF92FF920F931F93CF93DF93D1
:10032000CDB7DEB73C01162F2DB63EB62DB73EB782
:1003300042E0649F2019310911240FB6F8943EBFA2
:100340000FBE2DBF8DB79EB701962C01EDB7FEB73E
:100350001282118200E088EE882E83E0982EA12C74
:10036000B12C011708F051C00E949B046B017C0165
:10037000C3010E944D010097F9F0011102C020E075
:1003800012C0202FF201E20FF11DE20FF11DDF017B
:1003900012974D915C914817590728F45183408377
:1003A000215081F7ECCFF201E20FF11DE20FF11DB8
:1003B000918380830F5F01C01150011790F60E9456
:1003C0009B04DC01CB018C199D09AE09BF0988345F
:1003D0009147A105B10528F60E949B0428E4C20EAE
:1003E00021E7D21EE11CF11CA7019601261B370B49
:1003F000480B590BCA01B901A50194010E944C098F
:10040000CA01B9010E94C004ACCF1E7FF201E10F06
:10041000F11D6081718180E090E00FB6F8943EBEDE
:100420000FBE2DBEDF91CF911F910F91FF90EF90E6
:10043000DF90CF90BF90AF909F908F907F906F9004
:100440005F904F903F902F9008951F920F920FB69C
:100450000F9211242F933F934F935F936F937F934A
:100460008F939F93AF93BF93EF93FF93E091E4013A
:10047000F091E5010995FF91EF91BF91AF919F91A7
:100480008F917F916F915F914F913F912F910F903D
:100490000FBE0F901F901895CB0169E370E00E948A
:1004A0002409CB01089540E052EC61E070E083E361
:1004B00092E00E943B0761E083E00E94540561E006
:1004C00085E00E94540561E086E00E94540561E0E9
:1004D0008AE00C9454059F92AF92BF92CF92DF9224
:1004E000EF92FF920F931F93CF93DF93982E8B0180
:1004F0005A01C0E0D0E06901EE24D7FCE094FE2C64
:10050000CA15DB059CF4B801892D0E94C005C701FE
:10051000B6010E94C00460E070E0892D0E94C00511
:10052000C701B6010E94C0042196EACFDF91CF91A6
:100530001F910F91FF90EF90DF90CF90BF90AF9001
:100540009F9008958091280290912902892B09F0AB
:100550008FC18091F0019091F101892B09F045C084
:1005600062E071E083E392E00E944D0865E084E080
:1005700092E00E947E0184E092E00E944C029093FF
:10058000EF018093EE014AE050E0BC0183E392E08A
:100590000E941C0962E171E083E392E00E946A0814
:1005A0008091EE019091EF0186309105F4F4892B52
:1005B000E1F081E090E09093F1018093F00180916F
:1005C000000190910101019731F465E171E083E34D
:1005D00092E00E946A0824E630E042E050E06EEFCC
:1005E00070E083E090E00E946B028091EC019091BA
:1005F000ED01892B09F045C06DE271E083E392E0E3
:100600000E944D0865E082EF91E00E947E0182EF3A
:1006100091E00E944C029093EB018093EA014AE042
:1006200050E0BC0183E392E00E941C0962E171E0AA
:1006300083E392E00E946A088091EA019091EB01C5
:1006400086309105F4F4892BE1F081E090E09093FD
:10065000ED018093EC0180910001909101010197DF
:1006600031F46CE371E083E392E00E946A0824E6CF
:1006700030E042E050E06EEF70E086E090E00E94F3
:100680006B028091E8019091E901892B09F045C046
:1006900063E571E083E392E00E944D0865E086E146
:1006A00092E00E947E0186E192E00E944C029093CB
:1006B000E7018093E6014AE050E0BC0183E392E069
:1006C0000E941C0962E171E083E392E00E946A08E3
:1006D0008091E6019091E70186309105F4F4892B31
:1006E000E1F081E090E09093E9018093E80180914E
:1006F000000190910101019731F462E671E083E31A
:1007000092E00E946A0824E630E042E050E06EEF9A
:1007100070E08AE090E00E946B028091F00190917D
:10072000F101019731F5809100019091010101974C
:1007300001F569E771E083E392E00E946A0865E0F1
:1007400084E092E00E947E0184E092E00E944C02EC
:100750009093EF018093EE014AE050E0BC0183E307
:1007600092E00E941C0962E171E083E392E00E9442
:100770006A088091EC019091ED01019731F580912B
:10078000000190910101019701F560E971E083E3B7
:1007900092E00E946A0865E082EF91E00E947E018B
:1007A00082EF91E00E944C029093EB018093EA016A
:1007B0004AE050E0BC0183E392E00E941C0962E140
:1007C00071E083E392E00E946A088091E8019091D1
:1007D000E901019701F580910001909101010197D4
:1007E000D1F466EA71E083E392E00E946A0865E072
:1007F00086E192E00E947E0186E192E00E944C0236
:100800009093E7018093E6014AE050E0BC0183E366
:1008100092E00E941C098091F0019091F1010197F2
:1008200039F58091EC019091ED01019709F58091E6
:10083000E8019091E90181309105D1F4909329026A
:10084000809328028091000190910101019731F479
:100850006CEB71E083E392E00E946A0824E630E0EA
:1008600042E050E06EEF70E085E090E00C946B02A7
:10087000089528EC30E049E068E086E192E00E94CB
:100880008D0028EC30E04BE06CE084E092E00E94C8
:100890008D0028EC30E042E064E082EF91E00C94BF
:1008A0008D001F920F920FB60F9211242F933F933A
:1008B0008F939F93AF93BF9380912B0290912C02C3
:1008C000A0912D02B0912E0230912A0223E0230F35
:1008D0002D3720F40196A11DB11D05C026E8230F78
:1008E0000296A11DB11D20932A0280932B029093A2
:1008F0002C02A0932D02B0932E0280912F02909192
:100900003002A0913102B09132020196A11DB11DB9
:1009100080932F0290933002A0933102B093320261
:10092000BF91AF919F918F913F912F910F900FBEEB
:100930000F901F9018953FB7F89480912F029091D7
:100940003002A0913102B091320226B5A89B05C0B9
:100950002F3F19F00196A11DB11D3FBFBA2FA92F3E
:10096000982F8827820F911DA11DB11DBC01CD01BB
:1009700042E0660F771F881F991F4A95D1F70895A7
:10098000CF92DF92EF92FF92CF93DF936B017C01C6
:100990000E949B04EB01C114D104E104F10479F03D
:1009A0000E949B046C1B7D0B683E7340A0F381E0AA
:1009B000C81AD108E108F108C851DC4FECCFDF912B
:1009C000CF91FF90EF90DF90CF900895019739F08D
:1009D000880F991F880F991F02970197F1F70895C3
:1009E000789484B5826084BD84B5816084BD85B50A
:1009F000826085BD85B5816085BDEEE6F0E08081D1
:100A000081608083E1E8F0E01082808182608083F1
:100A1000808181608083E0E8F0E080818160808374
:100A2000E1EBF0E0808184608083E0EBF0E08081A6
:100A300081608083EAE7F0E0808184608083808148
:100A400082608083808181608083808180688083F0
:100A50001092C1000895833081F028F4813099F01C
:100A60008230A1F008958630A9F08730B9F0843043
:100A7000D1F4809180008F7D03C0809180008F77BA
:100A800080938000089584B58F7702C084B58F7DF0
:100A900084BD08958091B0008F7703C08091B0002D
:100AA0008F7D8093B0000895CF93DF9390E0FC0199
:100AB000E458FF4F2491FC01E057FF4F84918823B5
:100AC00061F190E0880F991FFC01E854FF4FC59138
:100AD000D491FC01E255FF4FA591B491611109C079
:100AE0009FB7F8948881209582238883EC912E23E8
:100AF0000BC0623061F49FB7F8943881822F8095E3
:100B000083238883EC912E2B2C939FBF06C08FB735
:100B1000F894E8812E2B28838FBFDF91CF91089521
:100B20001F93CF93DF93282F30E0F901E859FF4F4F
:100B30008491F901E458FF4FD491F901E057FF4F38
:100B4000C491CC23C9F0162F81110E942B05EC2FE4
:100B5000F0E0EE0FFF1FE255FF4FA591B4918FB764
:100B6000F894111105C09C91ED2FE095E92302C086
:100B7000EC91ED2BEC938FBFDF91CF911F910895F6
:100B80001F93CF93DF93182FEB0161E00E94540570
:100B9000209711F460E004C0CF3FD10539F461E043
:100BA000812FDF91CF911F910C949005E12FF0E000
:100BB000E859FF4FE491E330F9F048F4E130B9F03F
:100BC000E230A1F584B5806284BDC8BD34C0E63092
:100BD000E9F0E73019F1E43049F580918000806256
:100BE00080938000D0938B00C0938A0024C084B58A
:100BF000806884BDC7BD1FC08091800080688093DD
:100C00008000D0938900C093880015C08091B00007
:100C100080688093B000C093B3000DC08091B00095
:100C200080628093B000C093B40005C0C038D10585
:100C30000CF0B5CFAFCFDF91CF911F910895FC019C
:100C400024853585F901E05CFF4F808191813296E2
:100C500020813181805C9F4F821B930B60E470E0A8
:100C60000E9438090895DC011C96ED91FC911D97B6
:100C7000DF01A05CBF4F2D913C91119712968D9191
:100C80009C9111972817390739F08D919C91E80FA5
:100C9000F91F808190E008958FEF9FEF0895FC0188
:100CA000A485B585FD01E05CFF4F2081318132963E
:100CB000808191812817390779F080819181A80F6F
:100CC000B91F8C91208131812F5F3F4F2F733327C4
:100CD0003183208390E008958FEF9FEF0895FC010A
:100CE00081A1882329F0A489B5898C9186FFFBCF47
:100CF00011A208950F931F93CF93DF93FC01A68554
:100D0000B7858D01005C1F4FE801888199810196AC
:100D10008F739927AD014E5B5F4FEA0128813981BE
:100D200082179307D1F3E80128813981A20FB31FFD
:100D30006C93A685B785A05CBF4F11969C938E934C
:100D4000A689B7892C9181E090E0078C02C0880FBA
:100D5000991F0A94E2F7822B8C9381E081A3048887
:100D6000F589E02D80818064808381E090E0DF91CF
:100D7000CF911F910F91089508951F920F920FB672
:100D80000F9211242F934F935F938F939F93EF9321
:100D9000FF938091C00082FD1CC02091C60080910D
:100DA000D9029091DA0201968F7399274091DB0264
:100DB0005091DC028417950771F0E091D902F0910F
:100DC000DA02E756FD4F20839093DA028093D9022E
:100DD00002C08091C600FF91EF919F918F915F912A
:100DE0004F912F910F900FBE0F901F90189583E396
:100DF00092E00E941F06892B11F00C94BC06089506
:100E00001F920F920FB60F9211242F933F938F933F
:100E10009F93EF93FF9320919502309196028091DA
:100E20009702909198022817390731F48091C100F8
:100E30008F7D8093C10014C0E0919702F0919802D9
:100E4000EB5AFD4F20818091970290919802019674
:100E50008F73992790939802809397022093C600EE
:100E6000FF91EF919F918F913F912F910F900FBE26
:100E70000F901F901895CF92DF92EF92FF920F93F1
:100E80001F93CF93DF93EC016A017B01411581EE43
:100E900058076105710511F1EC89FD8981E090E049
:100EA00008A002C0880F991F0A94E2F7808360E0CF
:100EB00079E08DE390E0A70196010E944C09890139
:100EC0009A01015011092109310936952795179585
:100ED00007959801011580E11807A8F0EC89FD89B4
:100EE000108260E874E88EE190E0A70196010E940C
:100EF0004C09DA01C9010197A109B109B695A79575
:100F0000979587959C01E889F9893083EA89FB895F
:100F1000208319A2EE89FF89408181E090E09C0145
:100F20000C8C02C0220F331F0A94E2F7242B20837B
:100F3000EE89FF8940819C010D8C02C0220F331F76
:100F40000A94E2F7242B2083EE89FF8940819C01DB
:100F50000E8C02C0220F331F0A94E2F7242B208349
:100F6000EE89FF8920810F8C02C0880F991F0A9497
:100F7000E2F7809582238083DF91CF911F910F91BB
:100F8000FF90EF90DF90CF900895E3E3F2E01382BB
:100F9000128288EE93E0A0E0B0E084839583A6837C
:100FA000B78387ED91E09183808389E992E095870B
:100FB000848785E592E09787868785EC90E0918B22
:100FC000808B84EC90E0938B828B80EC90E0958B0F
:100FD000848B81EC90E0978B868B82EC90E0918FF4
:100FE000808F86EC90E0938F828F84E0848F83E003
:100FF000858F87E0868F85E0878F81E080A30895C5
:1010000008950E94F0040E9400080E945302C7EF56
:10101000D6E00E94A2022097E1F30E94F706F9CFE2
:10102000CF92DF92EF92FF920F931F93CF93DF93B4
:101030006C01EB017B01E40EF51E00E010E0CE1523
:10104000DF0561F06991D601ED91FC910190F0818D
:10105000E02DC6010995080F191FF1CFC801DF91D6
:10106000CF911F910F91FF90EF90DF90CF90089557
:101070006115710579F0FB0101900020E9F73197C6
:10108000AF01461B570BDC01ED91FC910280F3810F
:10109000E02D099480E090E008950C943808DC017C
:1010A000ED91FC910190F081E02D09940F931F9335
:1010B000CF93DF93EC016DE00E944F088C016AE052
:1010C000CE010E944F08800F911FDF91CF911F9199
:1010D0000F9108950F931F93CF93DF93EC010E941C
:1010E00038088C01CE010E945608800F911FDF91B5
:1010F000CF911F910F9108958F929F92AF92BF92BF
:10110000CF92DF92EF92FF920F931F93CF93DF93D3
:10111000CDB7DEB7A1970FB6F894DEBF0FBECDBF37
:101120006C01142FE52FCB01022F19A2223008F4F5
:101130000AE07E0121E2E20EF11C802E912CA12C0E
:10114000B12C612F7E2FA50194010E944C09029FB2
:101150001019112481E0E81AF1081A3014F4105D16
:1011600001C0195CF7011083122FE32FCA01232B52
:10117000242B252B31F7B701C6010E943808A19610
:101180000FB6F894DEBF0FBECDBFDF91CF911F9198
:101190000F91FF90EF90DF90CF90BF90AF909F9016
:1011A0008F900895CF92DF92EF92FF920F931F934B
:1011B000CF93DF93EC016A017B012115310579F4AE
:1011C000E881F9810190F081E02D642FDF91CF91CA
:1011D0001F910F91FF90EF90DF90CF9009942A30EC
:1011E0003105E9F477FF1AC06DE20E944F088C01C7
:1011F00044275527BA014C195D096E097F092AE079
:10120000CE010E947C08800F911FDF91CF911F912A
:101210000F91FF90EF90DF90CF9008952AE0B701F3
:10122000A601CE01DF91CF911F910F91FF90EF901A
:10123000DF90CF900C947C089A01AB01662757FD94
:101240006095762F0C94D208AA1BBB1B51E107C0F6
:10125000AA1FBB1FA617B70710F0A61BB70B881F46
:10126000991F5A95A9F780959095BC01CD010895D5
:1012700097FB072E16F4009407D077FD09D00E9443
:10128000240907FC05D03EF4909581959F4F089561
:10129000709561957F4F0895A1E21A2EAA1BBB1B82
:1012A000FD010DC0AA1FBB1FEE1FFF1FA217B30732
:1012B000E407F50720F0A21BB30BE40BF50B661F48
:1012C000771F881F991F1A9469F76095709580950C
:1012D00090959B01AC01BD01CF010895EE0FFF1F5A
:0C12E0000590F491E02D0994F894FFCFE4
:1012EC00010050696E6720657371756572646F3AA1
:1012FC002000636D0056696272616E646F206D6FC1
:10130C00746F7220657371756572646F0050696ECD
:10131C0067206469726569746F3A2000566962725D
:10132C00616E646F206D6F746F7220646972656991
:10133C00746F0050696E672066726F6E74616C3AE0
:10134C00200056696272616E646F206D6F746F72EB
:10135C002066726F6E74616C004D6F746F722065D5
:10136C007371756572646F207465737461646F005A
:10137C004D6F746F72206469726569746F20746547
:10138C00737461646F004D6F746F722066726F6E50
:10139C0074616C207465737461646F00546F646F56
:1013AC0073206D6F746F72657320746573746164F0
:1013BC006F7300000000007A0610081F064F0633FA
:0413CC00066F0600A2
:00000001FF
